{
  "transactions": [
    {
      "hash": "0x91327552ccbe610c04e2db8dd6e2b29b2dc8cd44fa9878008accc9f5391864b0",
      "transactionType": "CREATE",
      "contractName": "AttackerContract",
      "contractAddress": "0x84d25d36a2adbccfb954759f9838ceb92002c1ce",
      "function": null,
      "arguments": [
        "0x1B760423C46EEc057564e042D613D82e48324637"
      ],
      "transaction": {
        "from": "0x6a192a14dbd7e3e5bf67f091ab39d6245c409ddf",
        "gas": "0x3a09d",
        "value": "0x0",
        "input": "0x6080604052348015600e575f5ffd5b5060405161026c38038061026c833981016040819052602b91604e565b5f80546001600160a01b0319166001600160a01b03929092169190911790556079565b5f60208284031215605d575f5ffd5b81516001600160a01b03811681146072575f5ffd5b9392505050565b6101e6806100865f395ff3fe608060405234801561000f575f5ffd5b5060043610610034575f3560e01c80639e5faafc14610038578063c7792feb14610042575b5f5ffd5b610040610070565b005b5f54610054906001600160a01b031681565b6040516001600160a01b03909116815260200160405180910390f35b5f5460408051630bfcba7760e21b815290516001600160a01b03909216916323b872dd91736a192a14dbd7e3e5bf67f091ab39d6245c409ddf9130918591632ff2e9dc916004808201926020929091908290030181865afa1580156100d7573d5f5f3e3d5ffd5b505050506040513d601f19601f820116820180604052508101906100fb9190610173565b6040516001600160e01b031960e086901b1681526001600160a01b03938416600482015292909116602483015260448201526064016020604051808303815f875af115801561014c573d5f5f3e3d5ffd5b505050506040513d601f19601f82011682018060405250810190610170919061018a565b50565b5f60208284031215610183575f5ffd5b5051919050565b5f6020828403121561019a575f5ffd5b815180151581146101a9575f5ffd5b939250505056fea264697066735822122016736ff396960d5f34a47ea1e7a94e15730c28907183591580730dc7b04daeb064736f6c634300081c00330000000000000000000000001b760423c46eec057564e042d613d82e48324637",
        "nonce": "0x120",
        "chainId": "0x4268"
      },
      "additionalContracts": [],
      "isFixedGasLimit": false
    },
    {
      "hash": "0xdfaf056cb5fbd7a53540874b667beb49a8ea39e43a4554d55b8f1700fb47f159",
      "transactionType": "CALL",
      "contractName": null,
      "contractAddress": "0x1b760423c46eec057564e042d613d82e48324637",
      "function": "approve(address,uint256)",
      "arguments": [
        "0x84D25D36A2adBCcfB954759f9838CEb92002c1CE",
        "1000000000000000000000000"
      ],
      "transaction": {
        "from": "0x6a192a14dbd7e3e5bf67f091ab39d6245c409ddf",
        "to": "0x1b760423c46eec057564e042d613d82e48324637",
        "gas": "0xf9c8",
        "value": "0x0",
        "input": "0x095ea7b300000000000000000000000084d25d36a2adbccfb954759f9838ceb92002c1ce00000000000000000000000000000000000000000000d3c21bcecceda1000000",
        "nonce": "0x121",
        "chainId": "0x4268"
      },
      "additionalContracts": [],
      "isFixedGasLimit": false
    },
    {
      "hash": "0x6a3878745d2ce858eb1f148cb11737b94f9ac0a1a73d582a300e4ec1e1d066fd",
      "transactionType": "CALL",
      "contractName": "AttackerContract",
      "contractAddress": "0x84d25d36a2adbccfb954759f9838ceb92002c1ce",
      "function": "attack()",
      "arguments": [],
      "transaction": {
        "from": "0x6a192a14dbd7e3e5bf67f091ab39d6245c409ddf",
        "to": "0x84d25d36a2adbccfb954759f9838ceb92002c1ce",
        "gas": "0x1443b",
        "value": "0x0",
        "input": "0x9e5faafc",
        "nonce": "0x122",
        "chainId": "0x4268"
      },
      "additionalContracts": [],
      "isFixedGasLimit": false
    }
  ],
  "receipts": [
    {
      "status": "0x1",
      "cumulativeGasUsed": "0x102e1d",
      "logs": [],
      "logsBloom": "0x00000000000000000000000000000000000000000000000000000000000000000000000000000000000000000000000000000000000000000000000000000000000000000000000000000000000000000000000000000000000000000000000000000000000000000000000000000000000000000000000000000000000000000000000000000000000000000000000000000000000000000000000000000000000000000000000000000000000000000000000000000000000000000000000000000000000000000000000000000000000000000000000000000000000000000000000000000000000000000000000000000000000000000000000000000000",
      "type": "0x2",
      "transactionHash": "0x91327552ccbe610c04e2db8dd6e2b29b2dc8cd44fa9878008accc9f5391864b0",
      "transactionIndex": "0x8",
      "blockHash": "0xe4588e175ee2b824d6d09e4ee2d9bc750fd58cbe0f2ef5e20cfec87589f3060f",
      "blockNumber": "0x3194d0",
      "gasUsed": "0x2ca52",
      "effectiveGasPrice": "0xf4251",
      "from": "0x6a192a14dbd7e3e5bf67f091ab39d6245c409ddf",
      "to": null,
      "contractAddress": "0x84d25d36a2adbccfb954759f9838ceb92002c1ce"
    },
    {
      "status": "0x1",
      "cumulativeGasUsed": "0x181aa7",
      "logs": [
        {
          "address": "0x1b760423c46eec057564e042d613d82e48324637",
          "topics": [
            "0x8c5be1e5ebec7d5bd14f71427d1e84f3dd0314c0f7b2291e5b200ac8c7c3b925",
            "0x0000000000000000000000006a192a14dbd7e3e5bf67f091ab39d6245c409ddf",
            "0x00000000000000000000000084d25d36a2adbccfb954759f9838ceb92002c1ce"
          ],
          "data": "0x00000000000000000000000000000000000000000000d3c21bcecceda1000000",
          "blockHash": "0x12fa4ed4cfc485b1d246021ca6aad7ae7e74c6ae96b39755dc45a3f0171ad400",
          "blockNumber": "0x3194d1",
          "transactionHash": "0xdfaf056cb5fbd7a53540874b667beb49a8ea39e43a4554d55b8f1700fb47f159",
          "transactionIndex": "0xa",
          "logIndex": "0xd",
          "removed": false
        }
      ],
      "logsBloom": "0x00000000000000004000000000000000100000000000000000000000000000000001020000000000000000000000000000800000000000000000000000200000000000000000000000000000000000000000000000000000000000000000000000000000000000000000000000000000000000000000000004000000000000000000000000000000000000000000000000000000000000000000000000000000020000000000000000000000000000000000000000000000000000000000000000000000000000000000000000000000000000000000000000000000000000000010000000000020000000020200000000000000000000000000000000000000",
      "type": "0x2",
      "transactionHash": "0xdfaf056cb5fbd7a53540874b667beb49a8ea39e43a4554d55b8f1700fb47f159",
      "transactionIndex": "0xa",
      "blockHash": "0x12fa4ed4cfc485b1d246021ca6aad7ae7e74c6ae96b39755dc45a3f0171ad400",
      "blockNumber": "0x3194d1",
      "gasUsed": "0xb4d7",
      "effectiveGasPrice": "0xf4250",
      "from": "0x6a192a14dbd7e3e5bf67f091ab39d6245c409ddf",
      "to": "0x1b760423c46eec057564e042d613d82e48324637",
      "contractAddress": null
    },
    {
      "status": "0x1",
      "cumulativeGasUsed": "0x18f85a",
      "logs": [
        {
          "address": "0x1b760423c46eec057564e042d613d82e48324637",
          "topics": [
            "0x8c5be1e5ebec7d5bd14f71427d1e84f3dd0314c0f7b2291e5b200ac8c7c3b925",
            "0x0000000000000000000000006a192a14dbd7e3e5bf67f091ab39d6245c409ddf",
            "0x00000000000000000000000084d25d36a2adbccfb954759f9838ceb92002c1ce"
          ],
          "data": "0x0000000000000000000000000000000000000000000000000000000000000000",
          "blockHash": "0x12fa4ed4cfc485b1d246021ca6aad7ae7e74c6ae96b39755dc45a3f0171ad400",
          "blockNumber": "0x3194d1",
          "transactionHash": "0x6a3878745d2ce858eb1f148cb11737b94f9ac0a1a73d582a300e4ec1e1d066fd",
          "transactionIndex": "0xb",
          "logIndex": "0xe",
          "removed": false
        },
        {
          "address": "0x1b760423c46eec057564e042d613d82e48324637",
          "topics": [
            "0xddf252ad1be2c89b69c2b068fc378daa952ba7f163c4a11628f55a4df523b3ef",
            "0x0000000000000000000000006a192a14dbd7e3e5bf67f091ab39d6245c409ddf",
            "0x00000000000000000000000084d25d36a2adbccfb954759f9838ceb92002c1ce"
          ],
          "data": "0x00000000000000000000000000000000000000000000d3c21bcecceda1000000",
          "blockHash": "0x12fa4ed4cfc485b1d246021ca6aad7ae7e74c6ae96b39755dc45a3f0171ad400",
          "blockNumber": "0x3194d1",
          "transactionHash": "0x6a3878745d2ce858eb1f148cb11737b94f9ac0a1a73d582a300e4ec1e1d066fd",
          "transactionIndex": "0xb",
          "logIndex": "0xf",
          "removed": false
        }
      ],
      "logsBloom": "0x00000000000000004000000000000000100000000000000000000000000000000001020000000000000000000000000000800000000000000000000000200000000000000000000000000008000000000000000000000000000000000000000000000000000000000000000000000000000000000000000004000010000000000000000000000000000000000000000000000000000000000000000000000000020000000000000000000000000000000000000000000000000000000000000000000002000000000000000000000000000000000000000000000000000000000010000000000020000000020200000000000000000000000000000000000000",
      "type": "0x2",
      "transactionHash": "0x6a3878745d2ce858eb1f148cb11737b94f9ac0a1a73d582a300e4ec1e1d066fd",
      "transactionIndex": "0xb",
      "blockHash": "0x12fa4ed4cfc485b1d246021ca6aad7ae7e74c6ae96b39755dc45a3f0171ad400",
      "blockNumber": "0x3194d1",
      "gasUsed": "0xddb3",
      "effectiveGasPrice": "0xf4250",
      "from": "0x6a192a14dbd7e3e5bf67f091ab39d6245c409ddf",
      "to": "0x84d25d36a2adbccfb954759f9838ceb92002c1ce",
      "contractAddress": null
    }
  ],
  "libraries": [],
  "pending": [],
  "returns": {},
  "timestamp": 1738227315,
  "chain": 17000,
  "commit": "d31249e"
}